:100000000C942A000C943C000C943C000C943C0092
:100010000C943C000C943C000C943C000C943C0070
:100020000C943C000C943C000C943C000C943C0060
:100030000C943C000C943C000C943C000C943C0050
:100040000C943C000C943C000C943C000C943C0040
:100050000C943C0011241FBECFE5D8E0DEBFCDBF1D
:1000600010E0A0E6B0E001C01D92A136B107E1F7B3
:100070000E949A030C94A8030C940000DF93CF9382
:10008000CDB7DEB727970FB6F894DEBF0FBECDBF52
:1000900089836A834B838A81843008F0EEC089812A
:1000A000883008F0EAC08B81813009F06FC08A8106
:1000B000282F30E03F832E838E819F8181309105F0
:1000C00049F12E813F81223031052CF48E819F81B0
:1000D000009761F0D2C02E813F812230310571F14D
:1000E0008E819F8183309105E9F1C7C0AAE3B0E01A
:1000F000EAE3F0E08081482F8981282F30E081E019
:1001000090E0022E02C0880F991F0A94E2F7842B18
:100110008C93B3C0A7E3B0E0E7E3F0E08081482F21
:100120008981282F30E081E090E0022E02C0880F04
:10013000991F0A94E2F7842B8C939FC0A4E3B0E04C
:10014000E4E3F0E08081482F8981282F30E081E0CE
:1001500090E0022E02C0880F991F0A94E2F7842BC8
:100160008C938BC0A1E3B0E0E1E3F0E08081482F05
:100170008981282F30E081E090E0022E02C0880FB4
:10018000991F0A94E2F7842B8C9377C08B81882384
:1001900009F073C08A81282F30E03D832C838C8145
:1001A0009D818130910559F12C813D8122303105AD
:1001B0002CF48C819D81009769F05FC02C813D817A
:1001C0002230310589F18C819D818330910509F4BC
:1001D00040C053C0AAE3B0E0EAE3F0E08081482FDA
:1001E0008981282F30E081E090E0022E02C0880F44
:1001F000991F0A94E2F7809584238C933EC0A7E36D
:10020000B0E0E7E3F0E08081482F8981282F30E0DB
:1002100081E090E0022E02C0880F991F0A94E2F755
:10022000809584238C9329C0A4E3B0E0E4E3F0E05C
:100230008081482F8981282F30E081E090E0022ED4
:1002400002C0880F991F0A94E2F7809584238C934B
:1002500014C0A1E3B0E0E1E3F0E08081482F8981A0
:10026000282F30E081E090E0022E02C0880F991F15
:100270000A94E2F7809584238C9327960FB6F8941E
:10028000DEBF0FBECDBFCF91DF910895DF93CF9337
:10029000CDB7DEB727970FB6F894DEBF0FBECDBF40
:1002A00089836A834B838A81843008F0EEC0898118
:1002B000883008F0EAC08B81813009F06FC08A81F4
:1002C000282F30E03F832E838E819F8181309105DE
:1002D00049F12E813F81223031052CF48E819F819E
:1002E000009761F0D2C02E813F812230310571F13B
:1002F0008E819F8183309105E9F1C7C0ABE3B0E007
:10030000EBE3F0E08081482F8981282F30E081E005
:1003100090E0022E02C0880F991F0A94E2F7842B06
:100320008C93B3C0A8E3B0E0E8E3F0E08081482F0D
:100330008981282F30E081E090E0022E02C0880FF2
:10034000991F0A94E2F7842B8C939FC0A5E3B0E039
:10035000E5E3F0E08081482F8981282F30E081E0BB
:1003600090E0022E02C0880F991F0A94E2F7842BB6
:100370008C938BC0A2E3B0E0E2E3F0E08081482FF1
:100380008981282F30E081E090E0022E02C0880FA2
:10039000991F0A94E2F7842B8C9377C08B81882372
:1003A00009F073C08A81282F30E03D832C838C8133
:1003B0009D818130910559F12C813D81223031059B
:1003C0002CF48C819D81009769F05FC02C813D8168
:1003D0002230310589F18C819D818330910509F4AA
:1003E00040C053C0ABE3B0E0EBE3F0E08081482FC6
:1003F0008981282F30E081E090E0022E02C0880F32
:10040000991F0A94E2F7809584238C933EC0A8E359
:10041000B0E0E8E3F0E08081482F8981282F30E0C8
:1004200081E090E0022E02C0880F991F0A94E2F743
:10043000809584238C9329C0A5E3B0E0E5E3F0E048
:100440008081482F8981282F30E081E090E0022EC2
:1004500002C0880F991F0A94E2F7809584238C9339
:1004600014C0A2E3B0E0E2E3F0E08081482F89818C
:10047000282F30E081E090E0022E02C0880F991F03
:100480000A94E2F7809584238C9327960FB6F8940C
:10049000DEBF0FBECDBFCF91DF910895DF93CF9325
:1004A00000D000D0CDB7DEB789836A8389818430DC
:1004B00090F58981282F30E03C832B838B819C81B0
:1004C00081309105D1F02B813C81223031052CF413
:1004D0008B819C81009761F01EC02B813C81223072
:1004E000310581F08B819C818330910581F013C0AF
:1004F000EBE3F0E08A8180830EC0E8E3F0E08A81DC
:10050000808309C0E5E3F0E08A81808304C0E2E3F0
:10051000F0E08A8180830F900F900F900F90CF9121
:10052000DF910895DF93CF9300D000D0CDB7DEB731
:1005300089836A838981843090F58981282F30E00E
:100540003C832B838B819C8181309105D1F02B8161
:100550003C81223031052CF48B819C81009761F025
:100560001EC02B813C812230310581F08B819C8122
:100570008330910581F013C0EAE3F0E08A81808343
:100580000EC0E7E3F0E08A81808309C0E4E3F0E095
:100590008A81808304C0E1E3F0E08A8180830F9048
:1005A0000F900F900F90CF91DF910895DF93CF932D
:1005B00000D000D000D0CDB7DEB78A836B838FEF39
:1005C00089838A81843008F06EC08B81883008F07E
:1005D0006AC08A81282F30E03E832D834D815E8161
:1005E0004130510541F18D819E818230910534F475
:1005F0002D813E812115310561F052C04D815E8112
:100600004230510551F18D819E8183309105B9F1C0
:1006100047C0E9E3F0E08081282F30E08B81882F0C
:1006200090E0A90102C0559547958A95E2F7CA0165
:100630008170898335C0E6E3F0E08081282F30E0C7
:100640008B81882F90E0A90102C0559547958A9526
:10065000E2F7CA018170898323C0E3E3F0E080817F
:10066000282F30E08B81882F90E0A90102C055959A
:1006700047958A95E2F7CA018170898311C0E0E34A
:10068000F0E08081282F30E08B81882F90E0A90155
:1006900002C0559547958A95E2F7CA018170898312
:1006A00059815C8301C01C828C8126960FB6F89418
:1006B000DEBF0FBECDBFCF91DF910895DF93CF9303
:1006C000CDB7DEB7E0E4F0E01082E9E2F0E083E3EA
:1006D0008083EAE2F0E088E18083E0E4F0E086E80D
:1006E0008083CF91DF910895DF93CF930F92CDB7A1
:1006F000DEB78983EBE2F0E08081882F90E08072A2
:1007000090700097B9F3ECE2F0E0898180830F905C
:10071000CF91DF910895DF93CF93CDB7DEB7EBE2B2
:10072000F0E080818823DCF7ECE2F0E08081CF917B
:10073000DF910895DF93CF93CDB7DEB70E945E03BC
:1007400081E40E9474030E948B0380936000FBCFBE
:04075000F894FFCF4B
:00000001FF
