:100000000C942A000C9434000C9434000C943400AA
:100010000C9434000C9434000C9434000C94340090
:100020000C9434000C9434000C9434000C94340080
:100030000C9434000C9434000C9434000C94340070
:100040000C9434000C9434000C9434000C94340060
:100050000C94340011241FBECFE5D8E0DEBFCDBF25
:100060000E9436000C9464000C940000DF93CF9340
:1000700000D000D0CDB7DEB7EAE3F0E081E08083C6
:10008000EBE3F0E081E080831C821B8205C08B8162
:100090009C8101969C838B838B819C8121E6883A8D
:1000A0009207ACF3EBE3F0E010821A82198205C0EC
:1000B00089819A8101969A83898389819A8121E62F
:0C00C000883A9207ACF3DCCFF894FFCF35
:00000001FF
