:100000000C942A000C943F000C943F000C943F0089
:100010000C943F000C943F000C943F000C943F0064
:100020000C943F000C943F000C943F000C943F0054
:100030000C943F000C943F000C943F000C943F0044
:100040000C943F000C943F000C943F000C943F0034
:100050000C943F0011241FBECFE5D8E0DEBFCDBF1A
:1000600011E0A0E6B0E0E8E3F6E402C005900D92EE
:10007000AC39B107D9F70E94FF120C941A230C94E3
:100080000000EF92FF920F93DF93CF93CDB7DEB7CF
:1000900060970FB6F894DEBF0FBECDBFA82F002328
:1000A00009F461C07E010894E11CF11C88E0F701AD
:1000B00011928A95E9F729833A834B835C836D8398
:1000C0007E83AF83988780E2801BE82FFF27E7FDC0
:1000D000F09549815A816B817C81181684F01986CC
:1000E0001A861B861C86882799278E1B9F0B04C0A7
:1000F000440F551F661F771F8A95D2F728C0202FFF
:10010000332727FD3095DB01CA01022E04C0880F7A
:10011000991FAA1FBB1F0A94D2F789879A87AB87BA
:10012000BC8704C07695679557954795EA95D2F7B1
:100130008D819E81AF81B88504C0880F991FAA1F49
:10014000BB1F2A95D2F7482B592B6A2B7B2B4D8747
:100150005E876F87788B29853A854B855C856D85B1
:100160007E85AF8598898A2F60960FB6F894DEBF9A
:100170000FBECDBFCF91DF910F91FF90EF9008950B
:10018000EF92FF920F931F937B018C0120E030E0F0
:1001900040E05FE40E94A51088238CF0C801B701FD
:1001A00020E030E040E05FE40E941D0F0E94051156
:1001B0009B01AC01205030404040504806C0C8016F
:1001C000B7010E9405119B01AC01B901CA011F9141
:1001D0000F91FF90EF900895AEE5B0E0E2EFF0E010
:1001E0000C94E322A8E04E010894811C911CF401B8
:1001F0006A2E11926A94E9F729833A834B835C83D0
:100200006D837E838F839887CE010996FC011192BE
:10021000AA95E9F7A986BA86CB86DC86ED86FE86A6
:100220000F87188B29843A844B845C84ED84FE8488
:100230000F85188969807A808B809C806DA67EA648
:100240008FA698AA6D807E808F809884E114F10437
:100250000105110509F0B3C3621473048404950405
:1002600008F03DC100E0201600E0300601E0400645
:1002700000E0500688F41FEF2116310441045104B8
:1002800039F030F048E0E42EF12C012D112D18C08A
:10029000EE24FF24870114C020E0221620E032065D
:1002A00020E0420621E0520630F038E1E32EF12C46
:1002B000012D112D05C020E1E22EF12C012D112D73
:1002C000D201C1010E2C04C0B695A79597958795CC
:1002D0000A94D2F78A589F4FDC012C9180E290E07B
:1002E000A0E0B0E08E199F09A00BB10B7C018D013D
:1002F000E21AF10801091109E114F10401051105DF
:10030000A1F10E2C04C0220C331C441C551C0A9471
:10031000D2F7A40193010E2C04C0220F331F441FF7
:10032000551F0A94D2F780E290E08E199F096DA4C0
:100330007EA48FA498A804C0969487947794679419
:100340008A95D2F7622A732A842A952AADA4BEA47C
:10035000CFA4D8A804C0AA0CBB1CCC1CDD1CEA94FA
:10036000D2F7ADA6BEA6CFA6D8AA6201EE24FF247E
:10037000CDAADEAAEFAAF8AE9201810120703070FA
:1003800009AF1AAF2BAF3CAFC401B301A70196016F
:100390000E94C1227B018C01C401B3012DA93EA999
:1003A0004FA958AD0E94C122C901DA013C014D019B
:1003B000C401B30129AD3AAD4BAD5CAD0E94A222A0
:1003C0009B01AC018701FF24EE24ADA4BEA4CFA401
:1003D000D8A8C601AA27BB2757016801A82AB92AAD
:1003E000CA2ADB2AA216B306C406D506E0F408948E
:1003F0006108710881089108A20CB31CC41CD51CAB
:10040000A214B304C404D50470F0A216B306C40643
:10041000D50648F408946108710881089108A20C77
:10042000B31CC41CD51CA21AB30AC40AD50AC6013F
:10043000B5012DA93EA94FA958AD0E94C1227B014B
:100440008C01C601B5012DA93EA94FA958AD0E9446
:10045000C122C901DA015C016D01C601B50129ADF6
:100460003AAD4BAD5CAD0E94A2229B01AC0187016D
:10047000FF24EE248DA59EA5AFA5B8A9A070B070ED
:10048000E82AF92A0A2B1B2BE216F30604071507A4
:10049000C0F40894A108B108C108D108E20CF31C0B
:1004A000041D151DE214F3040405150550F0E216B1
:1004B000F3060407150728F40894A108B108C10839
:1004C000D108D3019927882786017501E82AF92ADE
:1004D0000A2B1B2BE9AAFAAA0BAB1CABCFC4211425
:1004E00031044104510471F461E070E080E090E077
:1004F00020E030E040E050E00E94C122C901DA0172
:100500001C012D0100E0201600E0300601E040064D
:1005100000E0500688F41FEF211631044104510415
:1005200031F028F048E050E060E070E017C040E0B3
:1005300050E060E070E012C020E0221620E03206B9
:1005400020E0420621E0520628F048E150E060E059
:1005500070E004C040E150E060E070E0D201C10111
:10056000042E04C0B695A795979587950A94D2F75F
:100570008A589F4FDC012C91E0E2EE2EF12C012DE8
:10058000112DD801C701841B950BA60BB70B821B3D
:100590009109A109B1090097A105B10561F46401B0
:1005A0005301A218B308C408D50831E0632E712C9A
:1005B000812C912C1EC16F968FAF6F97082E04C0AF
:1005C000220C331C441C551C0A94D2F7EE2DE81B58
:1005D000640153010E2E04C0D694C794B794A79417
:1005E0000A94D2F7A40193016F960FAC6F9704C0E1
:1005F000220F331F441F551F0A94D2F76DA47EA407
:100600008FA498A80E2E04C096948794779467942C
:100610000A94D2F784017301E22AF32A042B152BE2
:10062000E9A6FAA60BA71CA73201882499249201F7
:1006300081012070307021960CAF1DAF2EAF3FAFFF
:100640002197C601B501A40193010E94C1227B013B
:100650008C01C601B501A40193010E94C122C90108
:10066000DA0125968CAF9DAFAEAFBFAF2597BC0129
:10067000CD0121962CAD3DAD4EAD5FAD21970E94D1
:10068000A2229B01AC018701FF24EE24A9A4BAA4F5
:10069000CBA4DCA4C601AA27BB275C016D01AE2850
:1006A000BF28C02AD12AA216B306C406D50660F513
:1006B00025966CAD7DAD8EAD9FAD25976150704098
:1006C0008040904025966CAF7DAF8EAF9FAF259751
:1006D000A20CB31CC41CD51CA214B304C404D504BE
:1006E00098F0A216B306C406D50670F461507040A7
:1006F0008040904025966CAF7DAF8EAF9FAF259721
:10070000A20CB31CC41CD51CA21AB30AC40AD50A75
:10071000C601B501A40193010E94C1227B018C0195
:10072000C601B501A40193010E94C122C901DA01E9
:100730003C014D01C401B30121962CAD3DAD4EAD40
:100740005FAD21970E94A2229B01AC018701FF248B
:10075000EE2489A59AA5ABA5BCA5A070B0705701E1
:100760006801A82AB92ACA2ADB2AA216B306C40637
:10077000D506E0F408946108710881089108A20C7C
:10078000B31CC41CD51CA214B304C404D50470F05B
:10079000A216B306C406D50648F408946108710889
:1007A00081089108A20CB31CC41CD51C8DA59EA564
:1007B000AFA5B8A96F960FAC6F9704C0880F991FAB
:1007C000AA1FBB1F0A94D2F78DA79EA7AFA7B8ABED
:1007D000A21AB30AC40AD50A2596ECACFDAC0EAD3C
:1007E0001FAD2597D70199278827682A792A8A2A51
:1007F0009B2A82012227332729960CAF1DAF2EAFEB
:100800003FAF2997A2019101407050702D962CAFF7
:100810003DAF4EAF5FAF2D97C601B50129962CAD08
:100820003DAD4EAD5FAD29970E94C1227B018C0189
:10083000C601B50129962CAD3DAD4EAD5FAD2997F2
:100840000E94C122C901DA0161968CAF9DAFAEAFA3
:10085000BFAF6197BC01CD012D962CAD3DAD4EAD26
:100860005FAD2D970E94A2229B01AC018701FF245E
:10087000EE24ADA4BEA4CFA4D8A8C601AA27BB2746
:1008800057016801A82AB92ACA2ADB2AA216B30688
:10089000C406D50660F561966CAD7DAD8EAD9FAD9D
:1008A0006197615070408040904061966CAF7DAF21
:1008B0008EAF9FAF6197A20CB31CC41CD51CA214B1
:1008C000B304C404D50498F0A216B306C406D50632
:1008D00070F4615070408040904061966CAF7DAF85
:1008E0008EAF9FAF6197A20CB31CC41CD51CA21A7B
:1008F000B30AC40AD50AC601B50129962CAD3DAD8F
:100900004EAD5FAD29970E94C1227B018C01C601CB
:10091000B50129962CAD3DAD4EAD5FAD29970E9436
:10092000C122C901DA015C016D01C601B5012D9634
:100930002CAD3DAD4EAD5FAD2D970E94A2229B0127
:10094000AC018701FF24EE248DA59EA5AFA5B8A913
:10095000A070B070E82AF92A0A2B1B2BE216F306C6
:1009600004071507C0F40894A108B108C108D1080C
:10097000E20CF31C041D151DE214F3040405150517
:1009800050F0E216F3060407150728F40894A108AE
:10099000B108C108D1086196ECACFDAC0EAD1FAD3D
:1009A0006197D7019927882796018501082B192B74
:1009B0002A2B3B2B09AB1AAB2BAB3CAB62C26E14A0
:1009C0007F048006910608F451C220E0E21620E080
:1009D000F20621E0020720E0120788F43FEFE31659
:1009E000F1040105110531F028F048E050E060E025
:1009F00070E017C040E050E060E070E012C040E0FE
:100A0000E41640E0F40640E0040741E0140728F053
:100A100048E150E060E070E004C040E150E060E098
:100A200070E0D801C701042E04C0B695A79597952C
:100A300087950A94D2F78A589F4FDC012C9130E2B7
:100A4000A32EB12CC12CD12CD601C501841B950B32
:100A5000A60BB70B821B9109A109B1090097A1054B
:100A6000B10589F4E614F7040805190508F4F2C184
:100A70006DA47EA48FA498A86214730484049504C2
:100A800008F0E8C1F3C16E968FAF6E97082E04C0D0
:100A9000EE0CFF1C001F111F0A94D2F76A2D681B71
:100AA000D201C101062E04C0B695A79597958795EA
:100AB0000A94D2F75C016D01AE28BF28C02AD12A62
:100AC000ADA2BEA2CFA2D8A6720161016E960FACF4
:100AD0006E9704C0CC0CDD1CEE1CFF1C0A94D2F7F0
:100AE000C9A2DAA2EBA2FCA264015301062E04C043
:100AF000D694C794B794A7940A94D2F7D401C301AB
:100B00006E960FAC6E9704C0880F991FAA1FBB1F6B
:100B10000A94D2F7EDA4FEA40FA518A904C0169557
:100B20000795F794E7946A95D2F737014801682A48
:100B3000792A8A2A9B2A6D8E7E8E8F8E98A2EDA0AE
:100B4000FEA00FA118A538018824992498018701D7
:100B50002070307065960CAF1DAF2EAF3FAF65971C
:100B6000C601B501A40193010E94C1227B018C0141
:100B7000C601B501A40193010E94C122C901DA0195
:100B80001C012D01C201B10165962CAD3DAD4EADEC
:100B90005FAD65970E94A2229B01AC018701FF24F3
:100BA000EE24AD8CBE8CCF8CD8A0C601AA27BB2763
:100BB00057016801A82AB92ACA2ADB2AA216B30655
:100BC000C406D50600F508942108310841085108EB
:100BD000EDA0FEA00FA118A5AE0CBF1CC01ED11E1B
:100BE000AE14BF04C006D10670F0A216B306C40648
:100BF000D50648F408942108310841085108AE0C84
:100C0000BF1CC01ED11EA21AB30AC40AD50AC6014F
:100C1000B501A40193010E94C1227B018C01C60190
:100C2000B501A40193010E94C122C901DA013C016E
:100C30004D01C401B30165962CAD3DAD4EAD5FAD28
:100C400065970E94A2229B01AC018701FF24EE243C
:100C50008D8D9E8DAF8DB8A1A070B07057016801C9
:100C6000A82AB92ACA2ADB2AA216B306C406D506C0
:100C700000F5089461087108810891086DA17EA1B2
:100C80008FA198A5A60EB71EC81ED91EA616B70618
:100C9000C806D90670F0A216B306C406D50648F4F5
:100CA00008946108710881089108A60EB71EC81E35
:100CB000D91ED601C501821B930BA40BB50B898FDE
:100CC0009A8FAB8FBC8FD10199278827640153017C
:100CD000A82AB92ACA2ADB2AA9AABAAACBAADCAAB4
:100CE000860175012FEF3FEF40E050E0E222F32252
:100CF00004231523A601662777276D964CAF5DAFB9
:100D00006EAF7FAF6D97A9A0BAA0CBA0DCA06FEFAC
:100D10007FEF80E090E0A622B722C822D92289A1E5
:100D20009AA1ABA1BCA11D0144245524C801B7015F
:100D3000A60195010E94A22269966CAF7DAF8EAF8D
:100D40009FAF6997C801B701A20191010E94A22239
:100D50003B014C016D966CAD7DAD8EAD9FAD6D9739
:100D6000A60195010E94A2227B018C016D966CADBB
:100D70007DAD8EAD9FAD6D97A20191010E94A22223
:100D80005B016C01A8019701260D371D481D591DF7
:100D900069966CAC7DAC8EAC9FAC6997C401AA27F8
:100DA000BB27280F391F4A1F5B1F2E153F05400721
:100DB000510748F4E12CF12C61E0062F112DAE0C07
:100DC000BF1CC01ED11ECA01AA27BB27BC01CD0172
:100DD0006A0D7B1D8C1D9D1D698C7A8C8B8C9C8C67
:100DE000661677068806990640F166157705880528
:100DF000990509F043C0D9019927882769962CAD38
:100E00003DAD4EAD5FAD699740705070820F931F3E
:100E1000A41FB51F2DA53EA54FA558A96E960FACD2
:100E20006E9704C0220F331F441F551F0A94D2F738
:100E3000281739074A075B0708F509A91AA92BA93A
:100E40003CA9015010402040304009AB1AAB2BABFD
:100E50003CAB14C066247724430121E030E040E03D
:100E600050E029AB3AAB4BAB5CAB0BC066247724AC
:100E7000430119AA1AAA1BAA1CAA03C06624772434
:100E80004301FE01719688E0DF011D928A95E9F722
:100E9000A9A8BAA8CBA8DCA8A98ABA8ACB8ADC8A76
:100EA0006D8A7E8A8F8A988E29A93A894B895C89B6
:100EB000662D7E898F89988DC25ADF4FE2E10C94AE
:100EC000FF22ABE5B0E0E7E6F7E00C94E322A8E010
:100ED0004E010894811C911CF4016A2E11926A94AF
:100EE000E9F729833A834B835C836D837E838F8309
:100EF0009887CE010996FC011192AA95E9F7A98677
:100F0000BA86CB86DC86ED86FE860F87188B298411
:100F10003A844B845C84AD84BE84CF84D888298194
:100F20003A814B815C8169962FAF69976A963FAF92
:100F30006A976B964FAF6B976C965FAF6C976C969A
:100F40006CAC7DAC8EAC9FAC6C9769AA7AAA8BAA6C
:100F50009CAA6D817E818F8198853B014C016DAA91
:100F60007EAA8FAA98AEA114B104C104D10409F0DD
:100F700004C3621473048404950408F000C100E003
:100F8000201600E0300601E0400600E0500688F43C
:100F90001FEF211631044104510439F030F088E08C
:100FA000E82EF12C012D112D18C0EE24FF2487010D
:100FB00014C040E0241640E0340640E0440641E01E
:100FC000540630F0B8E1EB2EF12C012D112D05C0A7
:100FD000A0E1EA2EF12C012D112DD201C1010E2C20
:100FE00004C0B695A795979587950A94D2F78A5825
:100FF0009F4FDC012C9180E290E0A0E0B0E08E19E0
:101000009F09A00BB10B5C016D01A21AB108C108C8
:10101000D108A9AEBAAECBAEDCAEA114B104C10406
:10102000D10409F43FC069AD062E04C0220C331C64
:10103000441C551C0A94D2F7A4019301062E04C047
:10104000220F331F441F551F0A94D2F780E290E00D
:101050008A199B096C96CCACDDACEEACFFAC6C97FE
:1010600004C0F694E794D794C7948A95D2F7870181
:101070007601E22AF32A042B152BEDAAFEAA0FAB68
:1010800018AF6C968CAD9DADAEADBFAD6C9704C086
:10109000880F991FAA1FBB1F6A95D2F789AB9AAB1D
:1010A000ABABBCAB320188249924B201A1016070C2
:1010B000707021964CAF5DAF6EAF7FAF21976DA979
:1010C0007EA98FA998ADA40193010E94C1227B0142
:1010D0008C016DA97EA98FA998ADA40193010E94EE
:1010E000C122CA01B90121962CAD3DAD4EAD5FAD17
:1010F00021970E94A2229B01AC018701FF24EE24CC
:10110000A9A8BAA8CBA8DCA8C601AA27BB27570163
:101110006801A82AB92ACA2ADB2AA216B306C4067D
:10112000D50690F4A20CB31CC41CD51CA214B304A5
:10113000C404D50448F0A216B306C406D50620F4AC
:10114000A20CB31CC41CD51CA21AB30AC40AD50A2B
:10115000C601B501A40193010E94C1227B018C014B
:10116000C601B501A40193010E94C122CA01B901BF
:1011700021962CAD3DAD4EAD5FAD2197BAC1211486
:1011800031044104510471F461E070E080E090E0CA
:1011900020E030E040E050E00E94C122C901DA01C5
:1011A0001C012D0100E0201600E0300601E04006A1
:1011B00000E0500688F41FEF211631044104510469
:1011C00039F030F068E0E62EF12C012D112D18C019
:1011D000EE24FF24870114C040E0241640E03406CA
:1011E00040E0440641E0540630F058E1E52EF12C91
:1011F000012D112D05C040E1E42EF12C012D112D02
:10120000D201C1010E2C04C0B695A795979587957C
:101210000A94D2F78A589F4FDC012C9130E2A32E1A
:10122000B12CC12CD12CD601C5018E199F09A00B60
:10123000B10B7C018D01E21AF10801091109E9AE37
:10124000FAAE0BAF1CAFE114F1040105110539F43E
:1012500064015301A218B308C408D508E2C0F9AC70
:101260006896FFAE68970F2C04C0220C331C441CF8
:10127000551C0A94D2F78A2D8F1964015301082E48
:1012800004C0D694C794B794A7940A94D2F7A40143
:10129000930104C0220F331F441F551FFA94D2F745
:1012A0006C966CAC7DAC8EAC9FAC6C9704C0969485
:1012B0008794779467948A95D2F784017301E22A20
:1012C000F32A042B152BEDA6FEA60FA718AB3201AF
:1012D00088249924B201A1016070707025964CAFEA
:1012E0005DAF6EAF7FAF2597C601B501A401930135
:1012F0000E94C1227B018C01C601B501A4019301AA
:101300000E94C122CA01B90125962CAD3DAD4EAD5A
:101310005FAD25970E94A2229B01AC018701FF24AB
:10132000EE24ADA4BEA4CFA4D8A8C601AA27BB278B
:101330005C016D01AE28BF28C02AD12AA216B306CF
:10134000C406D50690F4A20CB31CC41CD51CA21470
:10135000B304C404D50448F0A216B306C406D506E7
:1013600020F4A20CB31CC41CD51CA21AB30AC40AD4
:10137000D50AC601B501A40193010E94C1227B01D7
:101380008C01C601B501A40193010E94C122CA01CA
:10139000B90125962CAD3DAD4EAD5FAD25970E94B0
:1013A000A2229B01AC018701FF24EE248DA59EA5FE
:1013B000AFA5B8A9A070B07057016801A82AB92AD2
:1013C000CA2ADB2AA216B306C406D50690F4A20CDC
:1013D000B31CC41CD51CA214B304C404D50448F027
:1013E000A216B306C406D50620F4A20CB31CC41C76
:1013F000D51C6C96ECACFDAC0EAD1FAD6C97689631
:101400000FAC689704C0EE0CFF1C001F111F0A945C
:10141000D2F7E9AAFAAA0BAB1CABA21AB30AC40A08
:10142000D50A320188249924B201A101607070703C
:1014300029964CAF5DAF6EAF7FAF2997C601B5015E
:10144000A40193010E94C1227B018C01C601B50158
:10145000A40193010E94C122CA01B90129962CADB1
:101460003DAD4EAD5FAD29970E94A2229B01AC011C
:101470008701FF24EE24A9A8BAA8CBA8DCA8C6013E
:10148000AA27BB2757016801A82AB92ACA2ADB2A3A
:10149000A216B306C406D50690F4A20CB31CC41C55
:1014A000D51CA214B304C404D50448F0A216B30694
:1014B000C406D50620F4A20CB31CC41CD51CA21A69
:1014C000B30AC40AD50AC601B501A40193010E945A
:1014D000C1227B018C01C601B501A40193010E94C8
:1014E000C122CA01B90129962CAD3DAD4EAD5FAD0B
:1014F00029970E94A2229B01AC018701FF24EE24C0
:1015000089A99AA9ABA9BCA9A070B070E82AF92A48
:101510000A2B1B2BE216F3060407150790F4E20CC6
:10152000F31C041D151DE214F3040405150548F011
:10153000E216F3060407150720F4E20CF31C041D61
:10154000151DE21AF30A040B150BD801C70109ACEB
:1015500004C0B695A795979587950A94D2F7898B7D
:101560009A8BAB8BBC8B1D8A1E8A1F8A188E282FE4
:101570003A894B895C896D890CC36A147B048C049D
:101580009D0408F409C300E0A01600E0B00601E0E5
:10159000C00600E0D00688F41FEFA116B104C10414
:1015A000D10439F030F028E0E22EF12C012D112D7C
:1015B00018C0EE24FF24870114C040E0A41640E0C8
:1015C000B40640E0C40641E0D40630F098E1E92ECC
:1015D000F12C012D112D05C080E1E82EF12C012DFB
:1015E000112DD601C5010E2C04C0B695A79597956F
:1015F00087950A94D2F78A589F4FDC012C9180E29C
:1016000090E0A0E0B0E08E199F09A00BB10B821B07
:101610009109A109B1090097A105B10509F04FC0D1
:10162000A614B704C804D90458F06C96ECACFDAC11
:101630000EAD1FAD6C97E214F3040405150568F1B7
:101640006C96ECACFDAC0EAD1FAD6C97E218F308D8
:1016500004091509A40193012A193B094C095D09E4
:10166000AA24BB2465016C966CAD7DAD8EAD9FAD9B
:101670006C976E157F058007910728F4B1E0AB2EBB
:10168000B12CC12CD12CDA01C9018A199B09AC09F2
:10169000BD098DAB9EABAFABB8AFE98AFA8A0B8BB5
:1016A0001C8B6DA87EA88FA898AC6D8A7E8A8F8AC5
:1016B000988E2E2D3A894B895C896DA96AC26796EE
:1016C0008FAF6797A6019501082E04C0220F331F24
:1016D000441F551F0A94D2F7A0E2AA2EA81A6696B4
:1016E000AFAE6697D201C10104C0B695A795979594
:1016F0008795AA94D2F76C017D01C22AD32AE42AE5
:10170000F52AC9A6DAA6EBA6FCA6820171016796A6
:101710000FAC679704C0EE0CFF1C001F111F0A944A
:10172000D2F7EDA2FEA20FA318A76401530166969B
:101730000FAC669704C0D694C794B794A7940A9444
:10174000D2F7A401930167960FAC679704C0220FEC
:10175000331F441F551F0A94D2F76C968CAD9DAD74
:10176000AEADBFAD6C9766960FAC669704C0B695EC
:10177000A795979587950A94D2F73C014D01622A67
:10178000732A842A952A69A27AA28BA29CA26C96BB
:10179000ECACFDAC0EAD1FAD6C9767960FAC6797C8
:1017A00004C0EE0CFF1C001F111F0A94D2F7ED8E2F
:1017B000FE8E0F8F18A349A55AA56BA57CA53B01EA
:1017C00088249924607070702D964CAF5DAF6EAF19
:1017D0007FAF2D97C601B501A40193010E94C122DC
:1017E0007B018C01C601B501A40193010E94C122B5
:1017F000C901DA011C012D01C201B1012D962CADE8
:101800003DAD4EAD5FAD2D970E94A2229B01AC0174
:101810008701FF24EE24A9A0BAA0CBA0DCA0C601BA
:10182000AA27BB2757016801A82AB92ACA2ADB2A96
:10183000A216B306C406D50600F50894210831089F
:1018400041085108E9A4FAA40BA51CA5AE0CBF1CC5
:10185000C01ED11EAE14BF04C006D10670F0A21681
:10186000B306C406D50648F4089421083108410897
:101870005108AE0CBF1CC01ED11EA21AB30AC40A66
:10188000D50AC601B501A40193010E94C1227B01C2
:101890008C01C601B501A40193010E94C122C901B6
:1018A000DA013C014D01C401B3012D962CAD3DADD3
:1018B0004EAD5FAD2D970E94A2229B01AC01870126
:1018C000FF24EE2489A19AA1ABA1BCA1A070B070A5
:1018D00057016801A82AB92ACA2ADB2AA216B30628
:1018E000C406D50600F508946108710881089108BE
:1018F00069A57AA58BA59CA5A60EB71EC81ED91EE4
:10190000A616B706C806D90670F0A216B306C40616
:10191000D50648F408946108710881089108A60E5C
:10192000B71EC81ED91ED601C501821B930BA40B7E
:10193000B50B898F9A8FAB8FBC8FD10199278827E0
:1019400084017301E82AF92A0A2B1B2B4FEFA42EDE
:101950004FEFB42EC12CD12CAE20BF20C022D122FB
:101960007801002711276DA07EA08FA098A44FEFCB
:101970005FEF60E070E064227522862297228DA1DD
:101980009EA1AFA1B8A5BD018827992765966CAF28
:101990007DAF8EAF9FAF6597C601B501A4019301DE
:1019A0000E94A22261966CAF7DAF8EAF9FAF619710
:1019B000C601B50165962CAD3DAD4EAD5FAD6597E9
:1019C0000E94A2221B012C01C801B701A4019301AE
:1019D0000E94A2225B016C01C801B70165962CAD83
:1019E0003DAD4EAD5FAD65970E94A2227B018C019B
:1019F000A6019501220D331D441D551D61966CAC49
:101A00007DAC8EAC9FAC6197C401AA27BB27280F81
:101A1000391F4A1F5B1F2A153B054C055D0548F41D
:101A2000812C912CE1E0AE2EB12CE80CF91C0A1DA2
:101A30001B1DCA01AA27BB2757016801A80EB91EA2
:101A4000CA1EDB1EA9013327222761968CAD9DADEE
:101A5000AEADBFAD6197A070B070280F391F4A1F9F
:101A60005B1FE98CFA8C0B8D1C8DEA14FB040C05B2
:101A70001D0570F0AE14BF04C006D10669F56D8D6A
:101A80007E8D8F8D98A1621773078407950720F5C7
:101A9000DA01C9016DA07EA08FA098A486199709CC
:101AA000A809B909E9A4FAA40BA51CA5AE18BF089A
:101AB000C00AD10AEE24FF248701281739074A07F4
:101AC0005B0728F421E0E22EF12C012D112DAE1838
:101AD000BF08C00AD10A02C0DA01C9016D8C7E8C30
:101AE0008F8C98A0681A790A8A0A9B0A498D5A8DA8
:101AF0006B8D7C8D4A195B096C097D095A016B015C
:101B00002224332421016D8D7E8D8F8D98A1661541
:101B100077058805990528F481E0282E312C412C81
:101B2000512C86017501E218F30804091509A80172
:101B3000970166960FAC669704C0220F331F441FAF
:101B4000551F0A94D2F7D401C30167960FAC67976B
:101B500004C0B695A795979587950A94D2F7282B38
:101B6000392B4A2B5B2B298B3A8B4B8B5C8B6796E3
:101B70000FAC679704C016950795F794E7940A94FD
:101B8000D2F7ED8AFE8A0F8B188F3A894B895C89D0
:101B90006E2D7E898F89988DC55ADF4FE2E10C94B6
:101BA000FF22A0E0B0E0E7EDFDE00C94E322DC01D1
:101BB0002B01FA019C91923008F439C1EB01888124
:101BC000823008F433C1943069F4843009F02FC1B5
:101BD00011969C9111978981981709F428C1AEE656
:101BE000B0E025C1843009F421C18230A9F49230DB
:101BF00009F01DC19A01AD0188E0EA010990AE012A
:101C0000E90109929E018150C1F7E2018981119693
:101C10009C918923818308C1923009F407C11296EF
:101C20002D903C901397EB018A819B811496AD9087
:101C3000BD90CD90DC901797EC80FD800E811F81C8
:101C40009101281B390BB90137FF04C0662777279C
:101C5000621B730B603271050CF061C01216130623
:101C60006CF537014801062E04C09694879477944A
:101C700067940A94D2F721E030E040E050E004C0DD
:101C8000220F331F441F551F6A95D2F72150304051
:101C9000404050402E213F21402351232115310542
:101CA0004105510521F021E030E040E050E07901AC
:101CB0008A01E628F728082919293CC0232BD1F1ED
:101CC000260E371E35014601062E04C096948794D1
:101CD000779467940A94D2F721E030E040E050E036
:101CE00004C0220F331F441F551F6A95D2F721509D
:101CF0003040404050402A213B214C215D2121159C
:101D000031054105510521F021E030E040E050E08F
:101D100059016A01A628B728C828D9280BC08215FE
:101D200093052CF01C01AA24BB24650103C0EE24FA
:101D3000FF24870111969C91D20111968C919817DE
:101D400009F445C0992339F0A80197012A193B09E4
:101D50004C095D0906C0A60195012E193F09400BEB
:101D6000510B57FD08C011823382228224833583B0
:101D7000468357831DC081E0818333822282882776
:101D80009927DC01821B930BA40BB50B84839583ED
:101D9000A683B7830DC0220F331F441F551F248312
:101DA000358346835783828193810197938382830E
:101DB0002481358146815781DA01C9010197A10942
:101DC000B1098F5F9F4FAF4FBF4328F30BC0918383
:101DD00033822282EA0CFB1C0C1D1D1DE482F5825D
:101DE0000683178383E08083248135814681578170
:101DF00057FF1AC0C901AA2797FDA095BA2F817075
:101E00009070A070B0705695479537952795822BA6
:101E1000932BA42BB52B84839583A683B7838281D0
:101E20009381019693838283DF0101C0D201CD01AA
:101E3000CDB7DEB7E2E10C94FF22A0E2B0E0E3E22E
:101E4000FFE00C94EF2269837A838B839C832D833C
:101E50003E834F835887E9E0EE2EF12CEC0EFD1EF9
:101E6000CE010196B7010E942E128E010F5E1F4F08
:101E7000CE010596B8010E942E128A8991E0892729
:101E80008A8BC701B801AE01475E5F4F0E94D10D3A
:101E90000E945911A096E6E00C940B23A0E2B0E05A
:101EA000E4E5FFE00C94EF2269837A838B839C83C3
:101EB0002D833E834F835887F9E0EF2EF12CEC0EF3
:101EC000FD1ECE010196B7010E942E128E010F5EFB
:101ED0001F4FCE010596B8010E942E12C701B8010E
:101EE000AE01475E5F4F0E94D10D0E945911A0962E
:101EF000E6E00C940B23A0E2B0E0E1E8FFE00C94F4
:101F0000E32269837A838B839C832D833E834F8373
:101F10005887CE010196BE01675F7F4F0E942E1247
:101F2000CE010596BE016F5E7F4F0E942E129985ED
:101F3000923088F089898230C8F0943019F4823068
:101F400051F404C0843029F4923081F48EE690E09C
:101F5000C6C0923049F420E09A858A89981321E01E
:101F60002A87CE010996BBC0823049F420E09A85C9
:101F70008A89981321E02A8BCE014196B0C02D8426
:101F80003E844F8458886D887E888F88988CEE2494
:101F9000FF248701AA24BB24650140E050E060E0F3
:101FA00070E0E0E0F0E0C10181709070892BE9F011
:101FB000E60CF71C081D191D9A01AB012A0D3B1DEB
:101FC0004C1D5D1D80E090E0A0E0B0E0E614F70459
:101FD0000805190520F481E090E0A0E0B0E0BA0126
:101FE000A901480F591F6A1F7B1FAA0CBB1CCC1CE0
:101FF000DD1C97FE08C081E090E0A0E0B0E0A82AD8
:10200000B92ACA2ADB2A3196E032F10549F0660C7A
:10201000771C881C991C5694479437942794C3CFF7
:10202000FA85EA892B893C898B859C85280F391F85
:102030002E5F3F4F17C0CA0181709070892B61F0ED
:1020400016950795F794E79480E090E0A0E0B0E85B
:10205000E82AF92A0A2B1B2B769567955795479501
:102060002F5F3F4F77FDE7CF0CC0440F551F661F12
:10207000771F17FD4160EE0CFF1C001F111F215040
:102080003040403090E0590790E0690790E47907CC
:1020900060F32B8F3C8FDB01CA018F779070A070AB
:1020A000B07080349105A105B10561F447FD0AC007
:1020B000E114F1040105110529F0405C5F4F6F4FF9
:1020C0007F4F40781A8EFE1711F081E08A8F4D8F76
:1020D0005E8F6F8F78A383E0898FCE0149960E942F
:1020E0005911A096E2E10C94FF22A8E1B0E0EBE7E1
:1020F000F0E10C94EF2269837A838B839C832D8398
:102100003E834F83588789E0E82EF12CEC0EFD1EAC
:10211000CE010196B7010E942E128E010F5E1F4F55
:10212000CE010596B8010E942E128985823040F0BA
:102130008989823028F0C701B8010E94A61201C027
:102140008FEF6896E6E00C940B23A8E1B0E0EBEA91
:10215000F0E10C94EF2269837A838B839C832D8337
:102160003E834F83588789E0E82EF12CEC0EFD1E4C
:10217000CE010196B7010E942E128E010F5E1F4FF5
:10218000CE010596B8010E942E128985823040F05A
:102190008989823028F0C701B8010E94A61201C0C7
:1021A0008FEF6896E6E00C940B23A8E1B0E0EBED2E
:1021B000F0E10C94EF2269837A838B839C832D83D7
:1021C0003E834F83588789E0E82EF12CEC0EFD1EEC
:1021D000CE010196B7010E942E128E010F5E1F4F95
:1021E000CE010596B8010E942E128985823040F0FA
:1021F0008989823028F0C701B8010E94A61201C067
:1022000081E06896E6E00C940B23ACE0B0E0EBE0F4
:10221000F1E10C94F32269837A838B839C83CE0152
:102220000196BE016B5F7F4F0E942E128D8182301E
:1022300061F1823050F1843021F48E81882351F194
:102240002EC02F81388537FD20C06E812F3131059A
:102250001CF06623F9F023C08EE190E0821B930B03
:1022600029853A854B855C8504C0569547953795F9
:1022700027958A95D2F76623B1F050954095309511
:1022800021953F4F4F4F5F4F0EC020E030E040E0C0
:1022900050E009C02FEF3FEF4FEF5FE704C020E0B1
:1022A00030E040E050E8B901CA012C96E2E00C941D
:1022B0000F23DF92EF92FF920F931F93FC01E480B4
:1022C000F58006811781D1808081823048F480E0DA
:1022D00090E0A0E1B0E0E82AF92A0A2B1B2BA5C068
:1022E000843009F49FC0823021F4EE24FF2487015A
:1022F00005C0E114F1040105110519F4E0E0F0E076
:1023000096C0628173819FEF623879070CF05BC0E1
:1023100022E83FEF261B370B2A3131052CF020E055
:1023200030E040E050E02AC0B801A701022E04C00E
:1023300076956795579547950A94D2F781E090E096
:10234000A0E0B0E004C0880F991FAA1FBB1F2A9508
:10235000D2F70197A109B1098E219F21A023B123B2
:102360000097A105B10521F081E090E0A0E0B0E088
:102370009A01AB01282B392B4A2B5B2BDA01C901BF
:102380008F779070A070B07080349105A105B10571
:1023900039F427FF09C0205C3F4F4F4F5F4F04C007
:1023A000215C3F4F4F4F5F4FE0E0F0E02030A0E076
:1023B0003A07A0E04A07A0E45A0710F0E1E0F0E095
:1023C00079018A0127C06038710564F5FB01E15885
:1023D000FF4FD801C7018F779070A070B070803424
:1023E0009105A105B10539F4E7FE0DC080E490E048
:1023F000A0E0B0E004C08FE390E0A0E0B0E0E80E21
:10240000F91E0A1F1B1F17FF05C016950795F794A5
:10241000E794319687E016950795F794E7948A95A7
:10242000D1F705C0EE24FF248701EFEFF0E06E2F17
:10243000679566276795902F9F77D794DD24D7946B
:102440008E2F8695492F462B582F5D29B701CA013B
:102450001F910F91FF90EF90DF900895FC01DB0139
:10246000408151812281622F6F7770E0221F2227E5
:10247000221F9381892F880F822B282F30E0991FEC
:102480009927991F11969C93119721153105A9F54C
:10249000411551056105710511F482E037C082E8EC
:1024A0009FEF13969C938E9312979A01AB0167E06E
:1024B000220F331F441F551F6A95D1F783E08C9379
:1024C0000DC0220F331F441F551F12968D919C91F2
:1024D0001397019713969C938E931297203080E068
:1024E000380780E0480780E4580758F314962D9386
:1024F0003D934D935C93179708952F3F310579F4E1
:10250000411551056105710519F484E08C93089516
:1025100064FF03C081E08C9312C01C9210C02F573F
:10252000304013963C932E93129783E08C9387E070
:10253000440F551F661F771F8A95D1F77064149654
:102540004D935D936D937C93179708951F93DC01D2
:10255000FB019C91923008F447C08081823008F4DE
:1025600043C0943051F411961C91843099F58181C7
:10257000682F70E0611B71093FC0843021F09230F8
:1025800031F48230B9F18181882389F12DC011960F
:102590001C9111978230F1F081811817D9F41296AD
:1025A0002D913C911397828193818217930794F028
:1025B00028173907BCF014968D919D910D90BC9110
:1025C000A02D2481358146815781281739074A0774
:1025D0005B0718F4112341F00AC082179307A40780
:1025E000B50740F4112319F061E070E005C06FEF0A
:1025F0007FEF02C060E070E0CB011F910895DF9390
:10260000CF93CDB7DEB7C054D0400FB6F894DEBF3D
:102610000FBECDBF0E94D1190E94812280E00E948E
:10262000CB1B81E00E94CB1B82E00E94CB1B81E090
:1026300061E00E94662280E690E09FA38EA382E67E
:1026400090E09DA38CA385E690E09BA38AA389E6F6
:1026500090E099A388A382E088A782E089A781E01F
:102660008AA7CE018B969DAF8CAFEEE8F1E0FFAF6D
:10267000EEAFF3E02196FFAF2197EEADFFAD008006
:102680008EAD9FAD01969FAF8EAFECADFDAD0082DC
:102690008CAD9DAD01969DAF8CAF21969FAD2197DE
:1026A000915021969FAF21972196EFAD2197EE2370
:1026B00021F78EA19FA19FA78EA78CA19DA199AB69
:1026C00088AB8AA19BA19BAB8AAB88A199A19DAB4A
:1026D0008CABCE0188969FAB8EABCE01899699AF1D
:1026E00088AFCE018B969BAF8AAF1F8E1E8E1D8E3C
:1026F0001E8EA5C086E00E94DB1C81E061E00E9486
:1027000066228E8D992787FD90959C01220F331F9D
:10271000CE010196820F931FFC01BD9680819181AD
:102720000E94EB1D8F8D8330A8F490E18F8D981B54
:1027300082E0692F0E9466228F8D282F30E0CE0123
:102740008B96FC01E20FF31F80810E94CB1B8F8DC3
:102750008F5F8F8F80E090E0AAE7B4E4898F9A8F33
:10276000AB8FBC8F698D7A8D8B8D9C8D20E030E096
:102770004AEF54E40E947B0FDC01CB018D8B9E8BD2
:10278000AF8BB88F6D897E898F89988D20E030E07E
:1027900040E85FE30E94D51088232CF481E090E0AC
:1027A0009C8B8B8B3FC06D897E898F89988D20E0B3
:1027B0003FEF4FE757E40E94751018164CF5698DEE
:1027C0007A8D8B8D9C8D20E030E040E251E40E94B8
:1027D0007B0FDC01CB01BC01CD010E94C000DC01FC
:1027E000CB019C8B8B8B0FC088EC90E09A8B898BF4
:1027F00089899A890197F1F79A8B898B8B899C89B2
:1028000001979C8B8B8B8B899C89009769F714C0EF
:102810006D897E898F89988D0E94C000DC01CB0173
:102820009C8B8B8B8B899C89988B8F878F859889C4
:102830000197F1F7988B8F878E8D8F5F8E8F8E8D9E
:1028400084300CF457CF1E8E1D8E81E08F8FC4C054
:102850008F8D8E30D8F08E8D8430C4F481E061E0AD
:102860000E9466228E8D992787FD90959C01220FEC
:10287000331FCE010196820F931FFC01BD9680810C
:1028800091810E94EB1D8E8D8F5F8E8F8F8D803199
:10289000B8F08D8D8330A4F49D8D80E1F82FF91B65
:1028A0009F2F82E0692F0E9466228D8D282F2F5F37
:1028B000CE018B96622F0E94141E8D8D8F5F8D8F9F
:1028C00081E06F8D0E9466228CA99DA90E94EB1D5C
:1028D00090E18F8D981B82E0692F0E946622CE01C5
:1028E0008B9663E00E94141E80E090E0AAE7B4E4B7
:1028F0008B879C87AD87BE876B857C858D859E8504
:1029000020E030E04AEF54E40E947B0FDC01CB0171
:102910008F839887A987BA876F81788589859A85FB
:1029200020E030E040E85FE30E94D51088232CF4DB
:1029300081E090E09E838D833FC06F81788589859B
:102940009A8520E03FEF4FE757E40E947510181674
:102950004CF56B857C858D859E8520E030E040E2DE
:1029600051E40E947B0FDC01CB01BC01CD010E9430
:10297000C000DC01CB019E838D830FC088EC90E00A
:102980009C838B838B819C810197F1F79C838B8344
:102990008D819E8101979E838D838D819E8100977D
:1029A00069F714C06F81788589859A850E94C00077
:1029B000DC01CB019E838D838D819E819A838983E7
:1029C00089819A810197F1F79A83898381E00E9436
:1029D000DB1C8F8D8F5F8F8F8F8D813108F438CF07
:1029E00032CFDF93CF9300D000D00F92CDB7DEB7B8
:1029F0008A836B8381E089838A81282F30E03D833D
:102A00002C838C819D818230910539F12C813D810F
:102A10002330310534F48C819D818130910561F042
:102A20004FC02C813D812330310541F18C819D8146
:102A300084309105A1F144C08B81813029F4EAE30F
:102A4000F0E08FEF80833DC08B81882321F4EAE39F
:102A5000F0E0108236C0198234C08B81813029F4B5
:102A6000E7E3F0E08FEF80832CC08B81882321F493
:102A7000E7E3F0E0108225C0198223C08B8181300A
:102A800029F4E4E3F0E08FEF80831BC08B8188237F
:102A900021F4E4E3F0E0108214C0198212C08B81AB
:102AA000813029F4E1E3F0E08FEF80830AC08B816D
:102AB000882321F4E1E3F0E0108203C0198201C011
:102AC000198289810F900F900F900F900F90CF91E6
:102AD000DF910895DF93CF9300D000D00F92CDB750
:102AE000DEB78A836B8381E089838A81282F30E077
:102AF0003D832C838C819D8182309105D9F02C817E
:102B00003D812330310534F48C819D8181309105E4
:102B100061F01FC02C813D812330310581F08C8113
:102B20009D818430910581F014C0EBE3F0E08B814E
:102B3000808310C0E8E3F0E08B8180830BC0E5E385
:102B4000F0E08B81808306C0E2E3F0E08B8180833C
:102B500001C0198289810F900F900F900F900F90F4
:102B6000CF91DF910895DF93CF9300D000D000D0B4
:102B7000CDB7DEB78A836B834C8381E089838B81F9
:102B8000883008F0E9C08A81282F30E03E832D8309
:102B90008D819E818230910509F449C02D813E814D
:102BA0002330310534F48D819E818130910571F09F
:102BB000D1C02D813E812330310509F469C08D815A
:102BC0009E818430910509F494C0C4C08C81813009
:102BD000A1F4AAE3B0E0EAE3F0E08081482F8B8122
:102BE000282F30E081E090E0022E02C0880F991F6C
:102BF0000A94E2F7842B8C93B0C08C818823A9F4CB
:102C0000AAE3B0E0EAE3F0E08081482F8B81282F2F
:102C100030E081E090E0022E02C0880F991F0A94F4
:102C2000E2F7809584238C9398C0198296C08C819A
:102C30008130A1F4A7E3B0E0E7E3F0E08081482F22
:102C40008B81282F30E081E090E0022E02C0880FB7
:102C5000991F0A94E2F7842B8C937FC08C81882380
:102C6000A9F4A7E3B0E0E7E3F0E08081482F8B818F
:102C7000282F30E081E090E0022E02C0880F991FDB
:102C80000A94E2F7809584238C9367C0198265C00B
:102C90008C818130A1F4A4E3B0E0E4E3F0E0808132
:102CA000482F8B81282F30E081E090E0022E02C077
:102CB000880F991F0A94E2F7842B8C934EC08C8165
:102CC0008823A9F4A4E3B0E0E4E3F0E08081482F96
:102CD0008B81282F30E081E090E0022E02C0880F27
:102CE000991F0A94E2F7809584238C9336C0198249
:102CF00034C08C818130A1F4A1E3B0E0E1E3F0E0E5
:102D00008081482F8B81282F30E081E090E0022ED7
:102D100002C0880F991F0A94E2F7842B8C931DC080
:102D20008C818823A9F4A1E3B0E0E1E3F0E08081A5
:102D3000482F8B81282F30E081E090E0022E02C0E6
:102D4000880F991F0A94E2F7809584238C9305C01D
:102D5000198203C0198201C01982898126960FB693
:102D6000F894DEBF0FBECDBFCF91DF910895DF9302
:102D7000CF9300D000D000D0CDB7DEB78A836B836D
:102D80004C8381E089838B81883008F0E9C08A8197
:102D9000282F30E03E832D838D819E8182309105E6
:102DA00009F449C02D813E812330310534F48D81F1
:102DB0009E818130910571F0D1C02D813E812330FB
:102DC000310509F469C08D819E818430910509F433
:102DD00094C0C4C08C818130A1F4ABE3B0E0EBE3DC
:102DE000F0E08081482F8B81282F30E081E090E057
:102DF000022E02C0880F991F0A94E2F7842B8C934D
:102E0000B0C08C818823A9F4ABE3B0E0EBE3F0E041
:102E10008081482F8B81282F30E081E090E0022EC6
:102E200002C0880F991F0A94E2F7809584238C933F
:102E300098C0198296C08C818130A1F4A8E3B0E0DB
:102E4000E8E3F0E08081482F8B81282F30E081E09B
:102E500090E0022E02C0880F991F0A94E2F7842B9B
:102E60008C937FC08C818823A9F4A8E3B0E0E8E3C9
:102E7000F0E08081482F8B81282F30E081E090E0C6
:102E8000022E02C0880F991F0A94E2F780958423CE
:102E90008C9367C0198265C08C818130A1F4A5E351
:102EA000B0E0E5E3F0E08081482F8B81282F30E00F
:102EB00081E090E0022E02C0880F991F0A94E2F789
:102EC000842B8C934EC08C818823A9F4A5E3B0E0B9
:102ED000E5E3F0E08081482F8B81282F30E081E00E
:102EE00090E0022E02C0880F991F0A94E2F78095A5
:102EF00084238C9336C0198234C08C818130A1F434
:102F0000A2E3B0E0E2E3F0E08081482F8B81282F3C
:102F100030E081E090E0022E02C0880F991F0A94F1
:102F2000E2F7842B8C931DC08C818823A9F4A2E343
:102F3000B0E0E2E3F0E08081482F8B81282F30E081
:102F400081E090E0022E02C0880F991F0A94E2F7F8
:102F5000809584238C9305C0198203C0198201C017
:102F60001982898126960FB6F894DEBF0FBECDBFB9
:102F7000CF91DF910895DF93CF9300D000D000D0A0
:102F8000CDB7DEB78A837C836B8381E089838A81B6
:102F9000282F30E03E832D838D819E8182309105E4
:102FA000E9F02D813E812330310534F48D819E81FD
:102FB0008130910561F027C02D813E81233031059C
:102FC000A1F08D819E8184309105B1F01CC0E9E3B0
:102FD000F0E08081EB81FC81808316C0E6E3F0E0C5
:102FE0008081EB81FC8180830FC0E3E3F0E080818E
:102FF000EB81FC81808308C0E0E3F0E08081EB811D
:10300000FC81808301C01982898126960FB6F894CD
:10301000DEBF0FBECDBFCF91DF910895DF93CF9379
:10302000CDB7DEB727970FB6F894DEBF0FBECDBF82
:103030008A836B835D834C8381E089838B818830B5
:1030400008F073C08A81282F30E03F832E834E81A1
:103050005F814230510559F18E819F818330910506
:1030600034F42E813F812130310569F05CC04E81FE
:103070005F814330510579F18E819F8184309105C4
:1030800009F43DC050C0E9E3F0E08081282F30E032
:103090008B81882F90E0A90102C0559547958A95AC
:1030A000E2F7CA018170EC81FD8180833FC0E6E3D5
:1030B000F0E08081282F30E08B81882F90E0A901FB
:1030C00002C0559547958A95E2F7CA018170EC8157
:1030D000FD8180832BC0E3E3F0E08081282F30E086
:1030E0008B81882F90E0A90102C0559547958A955C
:1030F000E2F7CA018170EC81FD81808317C0E0E3B3
:10310000F0E08081282F30E08B81882F90E0A901AA
:1031100002C0559547958A95E2F7CA018170EC8106
:10312000FD81808303C0198201C01982898127969D
:103130000FB6F894DEBF0FBECDBFCF91DF910895DB
:10314000DF93CF9300D00F92CDB7DEB769837A8338
:103150008B8389819A81692F40E00E94B3158B810E
:10316000813039F489819A81692F41E00E94B71634
:1031700006C089819A81692F40E00E94B7160F909E
:103180000F900F90CF91DF910895DF93CF9300D0F0
:1031900000D0CDB7DEB76A837B838C8319828A81A6
:1031A0009B81692F9E012F5F3F4FA9010E940E183E
:1031B00089810F900F900F900F90CF91DF9108951C
:1031C000DF93CF9300D000D0CDB7DEB769837A8389
:1031D0008B839C838A8161E00E94F1148B819C81A6
:1031E000692F41E00E94B3150F900F900F900F9040
:1031F000CF91DF910895DF93CF9300D000D00F924D
:10320000CDB7DEB769837A838B839C834D838981B5
:10321000882369F42A818D81882F90E0FC01EF5684
:10322000FE4F9081822F692F0E946A1511C08981FB
:10323000813071F42A818D81882F90E0FC01EF5656
:10324000FE4F8081982F9095822F692F0E946A15DA
:103250000F900F900F900F900F90CF91DF910895E6
:10326000DF93CF9300D000D0CDB7DEB769837A83E8
:103270008B839C838981882339F48B819C81692F7E
:1032800040E00E94B71609C08981813031F48B81FA
:103290009C81692F41E00E94B7160F900F900F900C
:1032A0000F90CF91DF910895DF93CF9300D000D09E
:1032B000CDB7DEB769837A838B839C83898188232A
:1032C00039F48B819C81692F41E00E94B71609C0B7
:1032D0008981813031F48B819C81692F40E00E948B
:1032E000B7160F900F900F900F90CF91DF91089528
:1032F000DF93CF9300D00F92CDB7DEB769837A8387
:103300008B8389819A81692F41E00E94B3150F90C8
:103310000F900F90CF91DF910895DF93CF9300D05E
:103320000F92CDB7DEB769837A838B838B8181302F
:1033300039F489819A81692F41E00E94B71609C04A
:103340008B81882331F489819A81692F40E00E9422
:10335000B7160F900F900F90CF91DF910895DF93E4
:10336000CF9300D00F92CDB7DEB769837A838B837A
:103370008B81813039F489819A81692F40E00E94E4
:10338000B71609C08B81882331F489819A81692F0E
:1033900041E00E94B7160F900F900F90CF91DF91F0
:1033A0000895DF93CF93CDB7DEB7E8970FB6F894C3
:1033B000DEBF0FBECDBF81E061E00E94F11483E06B
:1033C00060E041E00E94B31583E061E041E00E94CB
:1033D000B31583E062E041E00E94B31580E090E025
:1033E000A8E4B2E48DAB9EABAFABB8AF6DA97EA93C
:1033F0008FA998AD20E030E04AEF54E40E947B0FA3
:10340000DC01CB0189AB9AABABABBCAB69A97AA9A8
:103410008BA99CA920E030E040E85FE30E94D51032
:1034200088232CF481E090E098AB8FA73FC069A976
:103430007AA98BA99CA920E03FEF4FE757E40E94AF
:10344000751018164CF56DA97EA98FA998AD20E0CE
:1034500030E040E251E40E947B0FDC01CB01BC0173
:10346000CD010E94C000DC01CB0198AB8FA70FC03B
:1034700088EC90E09EA78DA78DA59EA50197F1F7FA
:103480009EA78DA78FA598A9019798AB8FA78FA509
:1034900098A9009769F714C069A97AA98BA99CA972
:1034A0000E94C000DC01CB0198AB8FA78FA598A923
:1034B0009CA78BA78BA59CA50197F1F79CA78BA731
:1034C00088E30E94DB1C80E090E0A0E8BFE38FA3CC
:1034D00098A7A9A7BAA76FA178A589A59AA520E062
:1034E00030E04AEF54E40E947B0FDC01CB018BA358
:1034F0009CA3ADA3BEA36BA17CA18DA19EA120E046
:1035000030E040E85FE30E94D51088232CF481E08E
:1035100090E09AA389A33FC06BA17CA18DA19EA13D
:1035200020E03FEF4FE757E40E94751018164CF566
:103530006FA178A589A59AA520E030E040E251E48A
:103540000E947B0FDC01CB01BC01CD010E94C000B9
:10355000DC01CB019AA389A30FC088EC90E098A36B
:103560008F8F8F8D98A10197F1F798A38F8F89A1E5
:103570009AA101979AA389A389A19AA1009769F7B3
:1035800014C06BA17CA18DA19EA10E94C000DC0192
:10359000CB019AA389A389A19AA19E8F8D8F8D8D2E
:1035A0009E8D0197F1F79E8F8D8F8CE00E94DB1C22
:1035B00080E090E0A0E8BFE3898F9A8FAB8FBC8F4B
:1035C000698D7A8D8B8D9C8D20E030E04AEF54E43C
:1035D0000E947B0FDC01CB018D8B9E8BAF8BB88F54
:1035E0006D897E898F89988D20E030E040E85FE327
:1035F0000E94D51088232CF481E090E09C8B8B8B6B
:103600003FC06D897E898F89988D20E03FEF4FE71D
:1036100057E40E94751018164CF5698D7A8D8B8DC4
:103620009C8D20E030E040E251E40E947B0FDC0101
:10363000CB01BC01CD010E94C000DC01CB019C8B01
:103640008B8B0FC088EC90E09A8B898B89899A8943
:103650000197F1F79A8B898B8B899C8901979C8BB9
:103660008B8B8B899C89009769F714C06D897E8943
:103670008F89988D0E94C000DC01CB019C8B8B8BC5
:103680008B899C89988B8F878F8598890197F1F713
:10369000988B8F8781E00E94DB1C80E090E0A0E0A7
:1036A000B0E48B879C87AD87BE876B857C858D85D5
:1036B0009E8520E030E04AEF54E40E947B0FDC015D
:1036C000CB018F839887A987BA876F817885898591
:1036D0009A8520E030E040E85FE30E94D51088231F
:1036E0002CF481E090E09E838D833FC06F817885CC
:1036F00089859A8520E03FEF4FE757E40E947510D7
:1037000018164CF56B857C858D859E8520E030E014
:1037100040E251E40E947B0FDC01CB01BC01CD01F2
:103720000E94C000DC01CB019E838D830FC088EC1A
:1037300090E09C838B838B819C810197F1F79C8324
:103740008B838D819E8101979E838D838D819E8148
:10375000009769F714C06F81788589859A850E94E2
:10376000C000DC01CB019E838D838D819E819A8375
:10377000898389819A810197F1F79A83898386E009
:103780000E94DB1CE8960FB6F894DEBF0FBECDBFDB
:10379000CF91DF910895DF93CF93CDB7DEB76D97CB
:1037A0000FB6F894DEBF0FBECDBF8D8F81E06D8D5B
:1037B0000E946A1583E060E041E00E94B71683E052
:1037C00061E040E00E94B71683E062E041E00E94C1
:1037D000B71680E090E0A0E8BFE3898F9A8FAB8FA7
:1037E000BC8F698D7A8D8B8D9C8D20E030E04AEF07
:1037F00054E40E947B0FDC01CB018D8B9E8BAF8B41
:10380000B88F6D897E898F89988D20E030E040E8FF
:103810005FE30E94D51088232CF481E090E09C8B1C
:103820008B8B3FC06D897E898F89988D20E03FEF1B
:103830004FE757E40E94751018164CF5698D7A8D84
:103840008B8D9C8D20E030E040E251E40E947B0FA4
:10385000DC01CB01BC01CD010E94C000DC01CB0129
:103860009C8B8B8B0FC088EC90E09A8B898B89891D
:103870009A890197F1F79A8B898B8B899C8901979B
:103880009C8B8B8B8B899C89009769F714C06D8901
:103890007E898F89988D0E94C000DC01CB019C8BB2
:1038A0008B8B8B899C89988B8F878F8598890197C3
:1038B000F1F7988B8F8783E062E040E00E94B716B3
:1038C00080E090E0A0E8BFE38B879C87AD87BE8750
:1038D0006B857C858D859E8520E030E04AEF54E441
:1038E0000E947B0FDC01CB018F839887A987BA8761
:1038F0006F81788589859A8520E030E040E85FE334
:103900000E94D51088232CF481E090E09E838D8363
:103910003FC06F81788589859A8520E03FEF4FE72A
:1039200057E40E94751018164CF56B857C858D85C3
:103930009E8520E030E040E251E40E947B0FDC01F4
:10394000CB01BC01CD010E94C000DC01CB019E83F4
:103950008D830FC088EC90E09C838B838B819C814E
:103960000197F1F79C838B838D819E8101979E83C4
:103970008D838D819E81009769F714C06F81788552
:1039800089859A850E94C000DC01CB019E838D83CE
:103990008D819E819A83898389819A810197F1F72C
:1039A0009A8389836D960FB6F894DEBF0FBECDBFA4
:1039B000CF91DF910895DF93CF93CDB7DEB76D97A9
:1039C0000FB6F894DEBF0FBECDBF8D8F81E06D8D39
:1039D0000E946A1583E060E040E00E94B71683E031
:1039E00061E040E00E94B71683E062E041E00E949F
:1039F000B71680E090E0A0E8BFE3898F9A8FAB8F85
:103A0000BC8F698D7A8D8B8D9C8D20E030E04AEFE4
:103A100054E40E947B0FDC01CB018D8B9E8BAF8B1E
:103A2000B88F6D897E898F89988D20E030E040E8DD
:103A30005FE30E94D51088232CF481E090E09C8BFA
:103A40008B8B3FC06D897E898F89988D20E03FEFF9
:103A50004FE757E40E94751018164CF5698D7A8D62
:103A60008B8D9C8D20E030E040E251E40E947B0F82
:103A7000DC01CB01BC01CD010E94C000DC01CB0107
:103A80009C8B8B8B0FC088EC90E09A8B898B8989FB
:103A90009A890197F1F79A8B898B8B899C89019779
:103AA0009C8B8B8B8B899C89009769F714C06D89DF
:103AB0007E898F89988D0E94C000DC01CB019C8B90
:103AC0008B8B8B899C89988B8F878F8598890197A1
:103AD000F1F7988B8F8783E062E040E00E94B71691
:103AE00080E090E0A0E8BFE38B879C87AD87BE872E
:103AF0006B857C858D859E8520E030E04AEF54E41F
:103B00000E947B0FDC01CB018F839887A987BA873E
:103B10006F81788589859A8520E030E040E85FE311
:103B20000E94D51088232CF481E090E09E838D8341
:103B30003FC06F81788589859A8520E03FEF4FE708
:103B400057E40E94751018164CF56B857C858D85A1
:103B50009E8520E030E040E251E40E947B0FDC01D2
:103B6000CB01BC01CD010E94C000DC01CB019E83D2
:103B70008D830FC088EC90E09C838B838B819C812C
:103B80000197F1F79C838B838D819E8101979E83A2
:103B90008D838D819E81009769F714C06F81788530
:103BA00089859A850E94C000DC01CB019E838D83AC
:103BB0008D819E819A83898389819A810197F1F70A
:103BC0009A8389836D960FB6F894DEBF0FBECDBF82
:103BD000CF91DF910895DF93CF9300D00F92CDB7AF
:103BE000DEB79B838A8319820EC08981282F30E03B
:103BF0008A819B81FC01E20FF31F80810E94CB1B15
:103C000089818F5F89838981282F30E08A819B8118
:103C1000FC01E20FF31F8081882339F70F900F908A
:103C20000F90CF91DF910895DF93CF9300D000D014
:103C3000CDB7DEB79B838A836C838C818150898367
:103C400010C08981282F332727FD30958A819B81D9
:103C5000FC01E20FF31F80810E94CB1B8981815000
:103C60008983898188236CF70F900F900F900F90B4
:103C7000CF91DF910895AF92BF92CF92DF92EF92F2
:103C8000FF920F931F93DF93CF93CDB7DEB7C75645
:103C9000D0400FB6F894DEBF0FBECDBF2A873B875A
:103CA0004C875D876E877F87888B998B1A821B82F2
:103CB0001C821D821E821F82188619866EC3AA84EA
:103CC000BB84CC84DD84EE84FF84088919892A2D85
:103CD0003B2D4C2D5D2D6E2D7F2D802F912F0F2E86
:103CE000FAE0AF2EF02DBB24CC24DD24EE24FF24FB
:103CF00000E010E00E946107A22EB32EC42ED52E44
:103D0000E62EF72E082F192FAA8ABB8ACC8ADD8AC5
:103D1000EE8AFF8A088F198F8A818A8F9B819B8FF9
:103D20008C818C8F9D819D8F8E818E8F9F819F8FA7
:103D3000888588A3998599A38A8D9A89890F8AA3F2
:103D400081E08AA79AA18A8D981708F01AA69B8D00
:103D50008B89980F9BA391E09BA78BA19B8D8917C3
:103D600008F01BA68AA59BA1890F8CA781E08DA7CF
:103D70009CA58BA1981708F01DA69BA58DA5982B37
:103D80009BA79CA59BA38C8D9C89890F8CA381E00C
:103D90008EA79CA18C8D981708F01EA69BA58CA1C0
:103DA000980F9FA791E098AB8FA59CA1891708F069
:103DB00018AA8EA598A9892B8EA78FA58CA39D8D57
:103DC0008D89980F9DA391E099AB8DA19D8D891749
:103DD00008F019AA8EA59DA1890F8AAB81E08BAB53
:103DE0009AA98DA1981708F01BAA99A98BA9982BBD
:103DF00099AB9AA99DA38E8D9E89890F8EA381E090
:103E00008CAB9EA18E8D981708F01CAA99A98EA143
:103E1000980F9DAB91E09EAB8DA99EA1891708F0EC
:103E20001EAA8CA99EA9892B8CAB8DA98EA39F8DD0
:103E30008F89980F9FA391E09FAB8FA19F8D8917CA
:103E400008F01FAA8CA99FA1890F88AF81E089AFD4
:103E500098AD8FA1981708F019AE9FA989AD982B3E
:103E60009FAB98AD9FA388A1988D890F88A781E00B
:103E70008AAF98A588A1981708F01AAE9FA988A5BF
:103E8000980F9BAF91E09CAF8BAD98A5891708F078
:103E90001CAE8AAD9CAD892B8AAF8BAD88A799A14A
:103EA000898D980F99A78AAD99A5890F89A78AA1AD
:103EB0008A839BA19B838CA18C839DA19D838EA1D2
:103EC0008E839FA19F8388A5888799A59987AA84B7
:103ED000BB84CC84DD84EE84FF84088919892A2D73
:103EE0003B2D4C2D5D2D6E2D7F2D802F912F0F2E74
:103EF000FAE0AF2EF02DBB24CC24DD24EE24FF24E9
:103F000000E010E00E94EC00A22EB32EC42ED52EAD
:103F1000E62EF72E082F192FAA86BB86CC86DD86C3
:103F2000EE86FF86088B198B8A859B85892B9C855D
:103F3000892B9D85892B9E85892B9F85892B988927
:103F4000892B9989892B882309F427C22A813B81EF
:103F50004C815D816E817F8188859985A22EB32EEB
:103F6000C42ED52EE62EF72E082F192F2A2D3B2DE5
:103F70004C2D5D2D6E2D7F2D802F912F01E00E9405
:103F800041002DAF3EAF4FAF21965FAF21972296F4
:103F90006FAF229723967FAF239724968FAF2497F6
:103FA00025969FAF25972DAD3EAD4FAD21965FADC8
:103FB000219722966FAD229723967FAD2397249663
:103FC0008FAD249725969FAD259702E00E94410072
:103FD00026962FAF269727963FAF279728964FAF65
:103FE000289729965FAF29972A966FAF2A972B9625
:103FF0007FAF2B972C968FAF2C972D969FAF2D9739
:104000008DAD26969FAD2697890F2E968FAF2E9752
:1040100081E066968FAF66972E969FAD2E978DADF9
:10402000981718F066961FAE66979EAD27968FADCF
:104030002797980F2F969FAF2F9791E067969FAF86
:1040400067972F968FAD2F979EAD891718F06796BB
:104050001FAE679766968FAD66972F969FAD2F9789
:10406000890F68968FAF689781E069968FAF6997DF
:1040700068969FAD68972F968FAD2F97981718F079
:1040800069961FAE699767969FAD679769968FADE2
:104090006997982B67969FAF679768969FAD6897CB
:1040A0002F969FAF2F978FAD28969FAD2897890F9A
:1040B00060968FAF609781E06A968FAF6A9760963F
:1040C0009FAD60978FAD981718F06A961FAE6A97EC
:1040D00067969FAD679760968FAD6097980F6B96C8
:1040E0009FAF6B9791E06C969FAF6C976B968FAD7F
:1040F0006B9760969FAD6097891718F06C961FAE0E
:104100006C976A968FAD6A976C969FAD6C97892B6A
:104110006A968FAF6A976B968FAD6B9760968FAFED
:10412000609721969FAD219729968FAD2997980F7B
:1041300061969FAF619791E06D969FAF6D97619685
:104140008FAD619721969FAD2197891718F06D96D5
:104150001FAE6D976A968FAD6A9761969FAD619716
:10416000890F6E968FAF6E9781E06F968FAF6F97C6
:104170006E969FAD6E9761968FAD6197981718F008
:104180006F961FAE6F976D969FAD6D976F968FADC3
:104190006F97982B6D969FAF6D976E969FAD6E97AC
:1041A00061969FAF619722968FAD22972A969FAD19
:1041B0002A97890F62968FAF629781E0A0968FAFA2
:1041C000A09762969FAD629722968FAD229798171F
:1041D00018F0A0961FAEA0976D969FAD6D97629652
:1041E0008FAD6297980FA1969FAFA19791E0A2968D
:1041F0009FAFA297A1968FADA19762969FAD629750
:10420000891718F0A2961FAEA297A0968FADA0971F
:10421000A2969FADA297892BA0968FAFA097A1964B
:104220008FADA19762968FAF629723969FAD23972C
:104230002B968FAD2B97980F63969FAF639791E066
:10424000A3969FAFA39763968FAD639723969FAD79
:104250002397891718F0A3961FAEA397A0968FAD4A
:10426000A09763969FAD6397890FA4968FAFA4978D
:1042700081E0A5968FAFA597A4969FADA49763966E
:104280008FAD6397981718F0A5961FAEA597A396C4
:104290009FADA397A5968FADA597982BA3969FAF9B
:1042A000A397A4969FADA49763969FAF6397249618
:1042B0008FAD24972C969FAD2C97890F64968FAF66
:1042C000649781E0A6968FAFA69764969FAD64979A
:1042D00024968FAD2497981718F0A6961FAEA69730
:1042E000A3969FADA39764968FAD6497980FA796FA
:1042F0009FAFA79791E0A8969FAFA897A7968FAD7D
:10430000A79764969FAD6497891718F0A8961FAE7B
:10431000A897A6968FADA697A8969FADA897892B2C
:10432000A6968FAFA697A7968FADA79764968FAFE7
:10433000649725969FAD25972D968FAD2D97980F55
:1043400065969FAF6597A6968FADA69765969FAD2C
:104350006597890F65968FAF65972E968FAD2E97CF
:104360008A832F969FAD2F979B8360968FAD609722
:104370008C8361969FAD61979D8362968FAD6297A6
:104380008E8363969FAD63979F8364968FAD64978A
:10439000888765969FAD659799878A859B85892BC8
:1043A0009C85892B9D85892B9E85892B9F85892BB3
:1043B0009889892B9989892B882309F080CC1982C7
:1043C00061C0AA80BB80CC80DD80EE80FF80088544
:1043D00019852A2D3B2D4C2D5D2D6E2D7F2D802F87
:1043E000912F0F2EFAE0AF2EF02DBB24CC24DD242C
:1043F000EE24FF2400E010E00E946107A22EB32EFD
:10440000C42ED52EE62EF72E082F192F2A2D3B2D40
:104410004C2D5D2D6E2D7F2D802F912F2983AA800D
:10442000BB80CC80DD80EE80FF80088519852A2D39
:104430003B2D4C2D5D2D6E2D7F2D802F912F0F2E1E
:10444000FAE0AF2EF02DBB24CC24DD24EE24FF2493
:1044500000E010E00E94EC00A22EB32EC42ED52E58
:10446000E62EF72E082F192FAA82BB82CC82DD827E
:10447000EE82FF82088719878981805D898389811F
:104480000E94CB1B8A819B81892B9C81892B9D81DA
:10449000892B9E81892B9F81892B9885892B9985D2
:1044A000892B882309F08DCFC959DF4F0FB6F894B7
:1044B000DEBF0FBECDBFCF91DF911F910F91FF9057
:1044C000EF90DF90CF90BF90AF900895DF93CF93A0
:1044D00000D0CDB7DEB789836A838981813029F422
:1044E0008A8181580E94DB1C07C08981823021F4B7
:1044F0008A8181540E94DB1C0F900F90CF91DF9135
:104500000895DF93CF930F92CDB7DEB780E40E947A
:10451000DB1C19820CC08981882F90E0FC01EA58CD
:10452000FE4F80810E94CB1B89818F5F89838981A7
:10453000883188F381E061E00E9466220F90CF917C
:10454000DF910895629FD001739FF001829FE00D7B
:10455000F11D649FE00DF11D929FF00D839FF00D02
:10456000749FF00D659FF00D9927729FB00DE11DAE
:10457000F91F639FB00DE11DF91FBD01CF0111248B
:104580000895A1E21A2EAA1BBB1BFD010DC0AA1F94
:10459000BB1FEE1FFF1FA217B307E407F50720F0AC
:1045A000A21BB30BE40BF50B661F771F881F991F27
:1045B0001A9469F760957095809590959B01AC0170
:1045C000BD01CF0108952F923F924F925F926F925B
:1045D0007F928F929F92AF92BF92CF92DF92EF9293
:1045E000FF920F931F93CF93DF93CDB7DEB7CA1B14
:1045F000DB0B0FB6F894DEBF0FBECDBF09942A883F
:10460000398848885F846E847D848C849B84AA84E6
:10461000B984C884DF80EE80FD800C811B81AA8173
:10462000B981CE0FD11D0FB6F894DEBF0FBECDBF3E
:08463000ED010895F894FFCF9D
:104638007200657200736572004173657200000054
:104648000000000000000001020203030303040449
:104658000404040404040505050505050505050508
:1046680005050505050506060606060606060606E8
:1046780006060606060606060606060606060606D2
:1046880006060606060607070707070707070707B8
:1046980007070707070707070707070707070707A2
:1046A8000707070707070707070707070707070792
:1046B8000707070707070707070707070707070782
:1046C8000707070707070808080808080808080868
:1046D8000808080808080808080808080808080852
:1046E8000808080808080808080808080808080842
:1046F8000808080808080808080808080808080832
:104708000808080808080808080808080808080821
:104718000808080808080808080808080808080811
:104728000808080808080808080808080808080801
:1047380008080808080808080808080808080808F1
:104748000808080808080A140004040404040000FF
:1047580015151F00000000000000070404180001E0
:0C476800023F065B4F666D7D077F670017
:00000001FF
