:100000000C942A000C943F000C943F000C943F0089
:100010000C943F000C943F000C943F000C943F0064
:100020000C943F000C943F000C943F000C943F0054
:100030000C943F000C943F000C943F000C943F0044
:100040000C943F000C943F000C943F000C943F0034
:100050000C943F0011241FBECFE5D8E0DEBFCDBF1A
:1000600010E0A0E6B0E0EEEFFAE002C005900D92DD
:10007000A836B107D9F70E943F040C947D050C9473
:100080000000DF93CF9300D000D00F92CDB7DEB742
:100090008A836B8381E089838A81282F30E03D83C6
:1000A0002C838C819D818230910539F12C813D8199
:1000B0002330310534F48C819D818130910561F0CC
:1000C0004FC02C813D812330310541F18C819D81D0
:1000D00084309105A1F144C08B81813029F4EAE399
:1000E000F0E08FEF80833DC08B81882321F4EAE329
:1000F000F0E0108236C0198234C08B81813029F43F
:10010000E7E3F0E08FEF80832CC08B81882321F41C
:10011000E4E3F0E0108225C0198223C08B81813096
:1001200029F4E4E3F0E08FEF80831BC08B81882308
:1001300021F4E4E3F0E0108214C0198212C08B8134
:10014000813029F4E1E3F0E08FEF80830AC08B81F6
:10015000882321F4E1E3F0E0108203C0198201C09A
:10016000198289810F900F900F900F900F90CF916F
:10017000DF910895DF93CF9300D000D00F92CDB7D9
:10018000DEB78A836B8381E089838A81282F30E000
:100190003D832C838C819D818230910539F12C81A6
:1001A0003D812330310534F48C819D81813091056E
:1001B00061F04FC02C813D812330310541F18C81AC
:1001C0009D8184309105A1F144C08B81813029F457
:1001D000EBE3F0E08FEF80833DC08B81882321F437
:1001E000EBE3F0E0108236C0198234C08B8181309D
:1001F00029F4E8E3F0E08FEF80832CC08B81882323
:1002000021F4E5E3F0E0108225C0198223C08B8140
:10021000813029F4E5E3F0E08FEF80831BC08B8110
:10022000882321F4E5E3F0E0108214C0198212C0A3
:100230008B81813029F4E2E3F0E08FEF80830AC004
:100240008B81882321F4E2E3F0E0108203C019825D
:1002500001C0198289810F900F900F900F900F901D
:10026000CF91DF910895DF93CF9300D000D000D0DD
:10027000CDB7DEB78A836B834C8381E089838B8122
:10028000883008F0E9C08A81282F30E03E832D8332
:100290008D819E818230910509F449C02D813E8176
:1002A0002330310534F48D819E818130910571F0C8
:1002B000D1C02D813E812330310509F469C08D8183
:1002C0009E818430910509F494C0C4C08C81813032
:1002D000A1F4AAE3B0E0EAE3F0E08081482F8B814B
:1002E000282F30E081E090E0022E02C0880F991F95
:1002F0000A94E2F7842B8C93B0C08C818823A9F4F4
:10030000AAE3B0E0EAE3F0E08081482F8B81282F58
:1003100030E081E090E0022E02C0880F991F0A941D
:10032000E2F7809584238C9398C0198296C08C81C3
:100330008130A1F4A7E3B0E0E7E3F0E08081482F4B
:100340008B81282F30E081E090E0022E02C0880FE0
:10035000991F0A94E2F7842B8C937FC08C818823A9
:10036000A9F4A7E3B0E0E7E3F0E08081482F8B81B8
:10037000282F30E081E090E0022E02C0880F991F04
:100380000A94E2F7809584238C9367C0198265C034
:100390008C818130A1F4A4E3B0E0E4E3F0E080815B
:1003A000482F8B81282F30E081E090E0022E02C0A0
:1003B000880F991F0A94E2F7842B8C934EC08C818E
:1003C0008823A9F4A4E3B0E0E4E3F0E08081482FBF
:1003D0008B81282F30E081E090E0022E02C0880F50
:1003E000991F0A94E2F7809584238C9336C0198272
:1003F00034C08C818130A1F4A1E3B0E0E1E3F0E00E
:100400008081482F8B81282F30E081E090E0022E00
:1004100002C0880F991F0A94E2F7842B8C931DC0A9
:100420008C818823A9F4A1E3B0E0E1E3F0E08081CE
:10043000482F8B81282F30E081E090E0022E02C00F
:10044000880F991F0A94E2F7809584238C9305C046
:10045000198203C0198201C01982898126960FB6BC
:10046000F894DEBF0FBECDBFCF91DF910895DF932B
:10047000CF9300D000D000D0CDB7DEB78A836B8396
:100480004C8381E089838B81883008F0D4C08A81D5
:10049000282F30E03E832D838D819E81823091050F
:1004A00009F449C02D813E812330310534F48D811A
:1004B0009E818130910571F0BCC02D813E81233039
:1004C000310509F469C08D819E818430910509F45C
:1004D00094C0AFC08C818130A1F4ABE3B0E0EBE31A
:1004E000F0E08081482F8B81282F30E081E090E080
:1004F000022E02C0880F991F0A94E2F7842B8C9376
:100500009BC08C818823A9F4ABE3B0E0EBE3F0E07F
:100510008081482F8B81282F30E081E090E0022EEF
:1005200002C0880F991F0A94E2F7809584238C9368
:1005300083C0198281C08C818130A1F4A8E3B0E02E
:10054000E8E3F0E08081482F8B81282F30E081E0C4
:1005500090E0022E02C0880F991F0A94E2F7842BC4
:100560008C936AC08C818823A9F4A8E3B0E0E8E307
:10057000F0E08081482F8B81282F30E081E090E0EF
:10058000022E02C0880F991F0A94E2F780958423F7
:100590008C9352C0198250C08C818130A1F4A5E3A4
:1005A000B0E0E5E3F0E08081482F8B81282F30E038
:1005B00081E090E0022E02C0880F991F0A94E2F7B2
:1005C000842B8C9339C08C818823A9F4A5E3B0E0F7
:1005D000E5E3F0E08081482F8B81282F30E081E037
:1005E00090E0022E02C0880F991F0A94E2F78095CE
:1005F00084238C9321C019821FC08C818130A1F487
:10060000A2E3B0E0E2E3F0E08081482F8B81282F65
:1006100030E081E090E0022E02C0880F991F0A941A
:10062000E2F7842B8C9308C08C81882329F01982EF
:1006300003C0198201C01982898126960FB6F894E9
:10064000DEBF0FBECDBFCF91DF910895DF93CF9373
:1006500000D000D000D0CDB7DEB78A837C836B8317
:1006600081E089838A81282F30E03E832D838D812C
:100670009E8182309105E9F02D813E812330310544
:1006800034F48D819E818130910561F027C02D81E8
:100690003E8123303105A1F08D819E81843091050A
:1006A000B1F01CC0E9E3F0E08081EB81FC81808344
:1006B00016C0E6E3F0E08081EB81FC8180830FC00F
:1006C000E3E3F0E08081EB81FC81808308C0E0E31C
:1006D000F0E08081EB81FC81808301C019828981F7
:1006E00026960FB6F894DEBF0FBECDBFCF91DF9137
:1006F0000895DF93CF93CDB7DEB727970FB6F89461
:10070000DEBF0FBECDBF8A836B835D834C8381E0E8
:1007100089838B81883008F073C08A81282F30E06C
:100720003F832E834E815F814230510559F18E8186
:100730009F818330910534F42E813F812130310532
:1007400069F05CC04E815F814330510579F18E8143
:100750009F818430910509F43DC050C0E9E3F0E089
:100760008081282F30E08B81882F90E0A90102C082
:10077000559547958A95E2F7CA018170EC81FD8114
:1007800080833FC0E6E3F0E08081282F30E08B815A
:10079000882F90E0A90102C0559547958A95E2F708
:1007A000CA018170EC81FD8180832BC0E3E3F0E01E
:1007B0008081282F30E08B81882F90E0A90102C032
:1007C000559547958A95E2F7CA018170EC81FD81C4
:1007D000808317C0E0E3F0E08081282F30E08B8138
:1007E000882F90E0A90102C0559547958A95E2F7B8
:1007F000CA018170EC81FD81808303C0198201C030
:100800001982898127960FB6F894DEBF0FBECDBF3F
:10081000CF91DF910895DF93CF93CDB7DEB72897BF
:100820000FB6F894DEBF0FBECDBF6D837E838F837E
:10083000988719821A821B821C820BC089819A8137
:10084000AB81BC810196A11DB11D89839A83AB83C5
:10085000BC8329813A814B815C818D819E81AF81EE
:10086000B885281739074A075B0740F328960FB663
:10087000F894DEBF0FBECDBFCF91DF910895DF9317
:10088000CF9300D000D000D0CDB7DEB781E061E0DB
:100890000E94410081E060E00E94BA0084E060E0D4
:1008A00040E00E94330184E060E041E00E943702B2
:1008B00019821A821B821C829E012D5F3F4F84E0A9
:1008C00060E0A9010E9479038B81882319F48C814F
:1008D0008F5F8C838C81282F30E03E832D838D8128
:1008E0009E818230910509F44DC02D813E812330D7
:1008F000310554F48D819E810097C9F02D813E8190
:1009000021303105F9F0EDC08D819E818430910553
:1009100009F48DC02D813E81243031050CF472C064
:100920008D819E818530910509F4B7C0DAC081E0E0
:1009300061E00E94BA0060E67AEE80E090E00E94FA
:100940000B04BACF19821AC081E060E00E94BA009D
:100950008981992787FD9095FC01E05AFF4F90818E
:1009600081E0692F41E00E94370260E67AEE80E084
:1009700090E00E940B0489818F5F89838981883090
:100980001CF39ACF19821AC081E060E00E94BA007D
:100990008981992787FD9095FC01E05AFF4F90814E
:1009A00081E0692F41E00E94370260E67AEE80E044
:1009B00090E00E940B0489818F5F89838981883050
:1009C0001CF387E089831AC081E060E00E94BA00CE
:1009D0008981992787FD9095FC01E05AFF4F90810E
:1009E00081E0692F41E00E94370260E67AEE80E004
:1009F00090E00E940B04898181508983898188233A
:100A00001CF75ACF81E061E00E94BA0060E67AEEFE
:100A100080E090E00E940B0481E060E00E94BA0058
:100A200060E67AEE80E090E00E940B0445CF1982E8
:100A300087E08A832AC08981992787FD9095FC01E8
:100A4000E05AFF4F908181E0692F41E00E94370218
:100A50008A81992787FD9095FC01E05AFF4F90818C
:100A600081E0692F41E00E94370260E67AEE80E083
:100A700090E00E940B0481E060E00E94BA0089814E
:100A80008F5F89838A8181508A83898184300CF0C9
:100A900013CF8A8184307CF60FCF81E060E00E9422
:100AA000BA00198216C08981992787FD9095FC01AB
:100AB000E05AFF4F908181E0692F41E00E943702A8
:100AC00060E67AEE80E090E00E940B0489818F5FFF
:100AD0008983898188303CF381E060E00E94BA001C
:100AE000EBCE1C8281E060E00E94BA0068EE7DEFF0
:0E0AF00080E090E00E940B04DFCEF894FFCF70
:080AFE000001020304050607D4
:00000001FF
